:030000000200BB40
:0C00BB00787FE4F6D8FD75812102010277
:0A01C9003F065B4F666D7D077F6FF8
:100198000219007F021300BF020F00DF020B00F7F5
:0E01A800021500FB021100FD01081E010A1ED7
:0801B700D2A3C2A37F2C7E013C
:0A01BF00EF1F70011E144E70F722AE
:10014700438901758CD8758AF075A882D28C759011
:10015700D7D200851780D2A2C2A27580FE1201B73E
:10016700851880D2A2C2A27580FD1201B7850D80C5
:10017700D2A2C2A27580EFD2A3C2A31201BB850E81
:1001870080D2A2C2A27580DFD2A3C2A31201BB8014
:01019700C2A5
:03000B0002000EE2
:0A000E00C0E0C0F0C083C082C0D083
:10001800758CD8758AF00509E509646460030200E7
:10002800B0F5091508150AE508705230000D750875
:1000380005750A057590B7D202801030021375084D
:100048000F750A0F75907DD204C202C200D20780D4
:100058002C300415750805750A0575907BC202C217
:1000680004C200C207D206801430061175081E7536
:100078000A237590D7C202D200C207C206E50875E6
:10008800F00A849001C993F517E50875F00A84E52C
:10009800F093F518E50A75F00A8493F50DE50A75ED
:0800A800F00A84E5F093F50E67
:0B00B000D0D0D082D083D0F0D0E0325E
:1000C700020147E493A3F8E493A34003F68001F207
:1000D70008DFF48029E493A3F85407240CC8C3333A
:1000E700C4540F4420C8834004F456800146F6DF09
:1000F700E4800B0102040810204080900198E47E00
:10010700019360BCA3FF543F30E509541FFEE493FD
:10011700A360010ECF54C025E060A840B8E493A3C4
:10012700FAE493A3F8E493A3C8C582C8CAC583CAEF
:10013700F0A3C8C582C8CAC583CADFE9DEE780BEA7
:0101B6000048
:00000001FF
